:100000000C942A000C9476080C949D080C94C40857
:100010000C9447000C9447000C9477070C9447000D
:100020000C9447000C9447000C9445070C94FC0674
:100030000C9447000C9447000C9447000C94470024
:100040000C9447000C9447000C9447000C94470014
:100050000C94470011241FBECFE5D8E0DEBFCDBF12
:1000600012E0A0E6B0E0E2EFF4E302C005900D92EA
:10007000A238B107D9F712E0A2E8B2E001C01D92A0
:10008000AE39B107E1F70E94B5170C94771A0C94BA
:100090000000EF92FF920F931F937B018C0120E0F1
:1000A00030E040E05FE40E94490388238CF0C801FF
:1000B000B70120E030E040E05FE40E94C1010E940F
:1000C000A9039B01AC01205030404040504806C07D
:1000D000C801B7010E94A9039B01AC01B901CA0183
:1000E0001F910F91FF90EF900895A0E0B0E0EBE733
:1000F000F0E00C94401ADC012B01FA019C91923043
:1001000008F439C1EB018881823008F433C194309E
:1001100069F4843009F02FC111969C91119789815F
:10012000981709F428C1AFE4B1E025C1843009F47F
:1001300021C18230A9F4923009F01DC19A01AD01AC
:1001400088E0EA010990AE01E90109929E0181501F
:10015000C1F7E201898111969C918923818308C1AD
:10016000923009F407C112962D903C901397EB0141
:100170008A819B811496AD90BD90CD90DC901797AD
:10018000EC80FD800E811F819101281B390BB90184
:1001900037FF04C066277727621B730B6032710537
:1001A0000CF061C0121613066CF537014801062EDB
:1001B00004C096948794779467940A94D2F721E0C8
:1001C00030E040E050E004C0220F331F441F551FB1
:1001D0006A95D2F721503040404050402E213F21B7
:1001E00040235123211531054105510521F021E01E
:1001F00030E040E050E079018A01E628F72808293C
:1002000019293CC0232BD1F1260E371E350146019A
:10021000062E04C096948794779467940A94D2F734
:1002200021E030E040E050E004C0220F331F441FC3
:10023000551F6A95D2F721503040404050402A2146
:100240003B214C215D21211531054105510521F04E
:1002500021E030E040E050E059016A01A628B728CB
:10026000C828D9280BC0821593052CF01C01AA249C
:10027000BB24650103C0EE24FF24870111969C91E5
:10028000D20111968C91981709F445C0992339F041
:10029000A80197012A193B094C095D0906C0A6016E
:1002A00095012E193F09400B510B57FD08C01182D3
:1002B0003382228224833583468357831DC081E0A5
:1002C00081833382228288279927DC01821B930B4A
:1002D000A40BB50B84839583A683B7830DC0220F2F
:1002E000331F441F551F24833583468357838281E0
:1002F000938101979383828324813581468157813D
:10030000DA01C9010197A109B1098F5F9F4FAF4F72
:10031000BF4328F30BC0918333822282EA0CFB1C7B
:100320000C1D1D1DE482F5820683178383E0808304
:10033000248135814681578157FF1AC0C901AA27F8
:1003400097FDA095BA2F81709070A070B0705695EF
:10035000479537952795822B932BA42BB52B848318
:100360009583A683B7838281938101969383828349
:10037000DF0101C0D201CD01CDB7DEB7E2E10C94BF
:100380005C1AA0E2B0E0E7ECF1E00C944C1A69834F
:100390007A838B839C832D833E834F835887E9E048
:1003A000EE2EF12CEC0EFD1ECE010196B7010E943F
:1003B0009A058E010F5E1F4FCE010596B8010E946F
:1003C0009A058A8991E089278A8BC701B801AE0115
:1003D000475E5F4F0E9475000E94C504A096E6E04C
:1003E0000C94681AA0E2B0E0E8EFF1E00C944C1A2B
:1003F00069837A838B839C832D833E834F835887C5
:10040000F9E0EF2EF12CEC0EFD1ECE010196B701A6
:100410000E949A058E010F5E1F4FCE010596B8010E
:100420000E949A05C701B801AE01475E5F4F0E9466
:1004300075000E94C504A096E6E00C94681AA0E23C
:10044000B0E0E5E2F2E00C94401A69837A838B8392
:100450009C832D833E834F835887CE010196BE0136
:10046000675F7F4F0E949A05CE010596BE016F5EC1
:100470007F4F0E949A059985923088F08989823051
:10048000C8F0943019F4823051F404C0843029F457
:10049000923081F48FE491E0C6C0923049F420E0BC
:1004A0009A858A89981321E02A87CE010996BBC0D4
:1004B000823049F420E09A858A89981321E02A8BBA
:1004C000CE014196B0C02D843E844F8458886D88FB
:1004D0007E888F88988CEE24FF248701AA24BB2471
:1004E000650140E050E060E070E0E0E0F0E0C10174
:1004F00081709070892BE9F0E60CF71C081D191D1E
:100500009A01AB012A0D3B1D4C1D5D1D80E090E062
:10051000A0E0B0E0E614F7040805190520F481E036
:1005200090E0A0E0B0E0BA01A901480F591F6A1F8E
:100530007B1FAA0CBB1CCC1CDD1C97FE08C081E0F5
:1005400090E0A0E0B0E0A82AB92ACA2ADB2A3196B6
:10055000E032F10549F0660C771C881C991C569412
:10056000479437942794C3CFFA85EA892B893C892D
:100570008B859C85280F391F2E5F3F4F17C0CA01FE
:1005800081709070892B61F016950795F794E79428
:1005900080E090E0A0E0B0E8E82AF92A0A2B1B2BC3
:1005A00076956795579547952F5F3F4F77FDE7CF36
:1005B0000CC0440F551F661F771F17FD4160EE0CDE
:1005C000FF1C001F111F21503040403090E05907A0
:1005D00090E0690790E4790760F32B8F3C8FDB0193
:1005E000CA018F779070A070B07080349105A1051A
:1005F000B10561F447FD0AC0E114F10401051105DC
:1006000029F0405C5F4F6F4F7F4F40781A8EFE1786
:1006100011F081E08A8F4D8F5E8F6F8F78A383E01A
:10062000898FCE0149960E94C504A096E2E10C9400
:100630005C1AA8E1B0E0EFE1F3E00C944C1A698396
:100640007A838B839C832D833E834F83588789E0F5
:10065000E82EF12CEC0EFD1ECE010196B7010E9492
:100660009A058E010F5E1F4FCE010596B8010E94BC
:100670009A058985823040F08989823028F0C70147
:10068000B8010E94120601C08FEF6896E6E00C9454
:10069000681AA8E1B0E0EFE4F3E00C944C1A698327
:1006A0007A838B839C832D833E834F83588789E095
:1006B000E82EF12CEC0EFD1ECE010196B7010E9432
:1006C0009A058E010F5E1F4FCE010596B8010E945C
:1006D0009A058985823040F08989823028F0C701E7
:1006E000B8010E94120601C08FEF6896E6E00C94F4
:1006F000681AA8E1B0E0EFE7F3E00C944C1A6983C4
:100700007A838B839C832D833E834F83588789E034
:10071000E82EF12CEC0EFD1ECE010196B7010E94D1
:100720009A058E010F5E1F4FCE010596B8010E94FB
:100730009A058985823040F08989823028F0C70186
:10074000B8010E94120601C081E06896E6E00C94B0
:10075000681AACE0B0E0EFEAF3E00C94501A698359
:100760007A838B839C83CE010196BE016B5F7F4FA2
:100770000E949A058D81823061F1823050F184307F
:1007800021F48E81882351F12EC02F81388537FDC9
:1007900020C06E812F3131051CF06623F9F023C093
:1007A0008EE190E0821B930B29853A854B855C8511
:1007B00004C056954795379527958A95D2F76623B5
:1007C000B1F050954095309521953F4F4F4F5F4F79
:1007D0000EC020E030E040E050E009C02FEF3FEFD6
:1007E0004FEF5FE704C020E030E040E050E8B9019F
:1007F000CA012C96E2E00C946C1AA8E0B0E0E3E0A9
:10080000F4E00C94481A7B018C0161157105810597
:10081000910519F482E0898360C083E089838EE1C9
:10082000C82ED12CDC82CB82ED82FE820F8318870A
:10083000C801B7010E947604FC013197F7FF3BC065
:10084000222733272E1B3F0B57016801022E04C0BD
:10085000D694C794B794A7940A94D2F740E050E096
:1008600060E070E081E090E0A0E0B0E004C0880FBC
:10087000991FAA1FBB1F2A95D2F70197A109B10999
:100880008E219F21A023B1230097A105B10521F05E
:1008900041E050E060E070E04A295B296C297D2945
:1008A0004D835E836F8378878EE190E08E1B9F0B74
:1008B0009C838B8312C0309781F00E2E04C0EE0C07
:1008C000FF1C001F111F0A94D2F7ED82FE820F83D6
:1008D0001887CE1ADF0ADC82CB821A82CE010196FB
:1008E0000E94C5042896EAE00C94641AEF92FF92E5
:1008F0000F931F937B018C0180E0E81680E0F806DF
:1009000081E0080780E0180788F48FEFE816F1040B
:100910000105110531F028F088E090E0A0E0B0E09A
:1009200017C080E090E0A0E0B0E012C080E0E816E0
:1009300080E0F80680E0080781E0180728F088E1E9
:1009400090E0A0E0B0E004C080E190E0A0E0B0E082
:1009500020E230E040E050E0281B390B4A0B5B0BF3
:1009600004C016950795F794E7948A95D2F7F70196
:10097000E95AFE4F8081281B310941095109C901FB
:100980001F910F91FF90EF900895DF92EF92FF92E9
:100990000F931F93FC01E480F58006811781D180BD
:1009A0008081823048F480E090E0A0E1B0E0E82A65
:1009B000F92A0A2B1B2BA5C0843009F49FC0823072
:1009C00021F4EE24FF24870105C0E114F1040105A0
:1009D000110519F4E0E0F0E096C0628173819FEFA9
:1009E000623879070CF05BC022E83FEF261B370B1B
:1009F0002A3131052CF020E030E040E050E02AC000
:100A0000B801A701022E04C07695679557954795C2
:100A10000A94D2F781E090E0A0E0B0E004C0880F33
:100A2000991FAA1FBB1F2A95D2F70197A109B109E7
:100A30008E219F21A023B1230097A105B10521F0AC
:100A400081E090E0A0E0B0E09A01AB01282B392BC7
:100A50004A2B5B2BDA01C9018F779070A070B070C0
:100A600080349105A105B10539F427FF09C0205C48
:100A70003F4F4F4F5F4F04C0215C3F4F4F4F5F4F81
:100A8000E0E0F0E02030A0E03A07A0E04A07A0E470
:100A90005A0710F0E1E0F0E079018A0127C06038E0
:100AA000710564F5FB01E158FF4FD801C7018F774D
:100AB0009070A070B07080349105A105B10539F433
:100AC000E7FE0DC080E490E0A0E0B0E004C08FE35A
:100AD00090E0A0E0B0E0E80EF91E0A1F1B1F17FF10
:100AE00005C016950795F794E794319687E016951B
:100AF0000795F794E7948A95D1F705C0EE24FF2473
:100B00008701EFEFF0E06E2F679566276795902FCE
:100B10009F77D794DD24D7948E2F8695492F462B27
:100B2000582F5D29B701CA011F910F91FF90EF90D7
:100B3000DF900895FC01DB01408151812281622F09
:100B40006F7770E0221F2227221F9381892F880F41
:100B5000822B282F30E0991F9927991F11969C937B
:100B6000119721153105A9F541155105610571054B
:100B700011F482E037C082E89FEF13969C938E9326
:100B800012979A01AB0167E0220F331F441F551FD4
:100B90006A95D1F783E08C930DC0220F331F441F59
:100BA000551F12968D919C911397019713969C93C4
:100BB0008E931297203080E0380780E0480780E469
:100BC000580758F314962D933D934D935C931797C4
:100BD00008952F3F310579F44115510561057105DF
:100BE00019F484E08C93089564FF03C081E08C9332
:100BF00012C01C9210C02F57304013963C932E9376
:100C0000129783E08C9387E0440F551F661F771F70
:100C10008A95D1F7706414964D935D936D937C9390
:100C2000179708951F93DC01FB019C91923008F403
:100C300047C08081823008F443C0943051F411964B
:100C40001C91843099F58181682F70E0611B7109D6
:100C50003FC0843021F0923031F48230B9F181818B
:100C6000882389F12DC011961C9111978230F1F0E3
:100C700081811817D9F412962D913C911397828196
:100C800093818217930794F028173907BCF01496C4
:100C90008D919D910D90BC91A02D2481358146812F
:100CA0005781281739074A075B0718F4112341F0C9
:100CB0000AC082179307A407B50740F4112319F05F
:100CC00061E070E005C06FEF7FEF02C060E070E0B0
:100CD000CB011F91089581B5816081BD81B582608E
:100CE00081BD81B5846081BD089581B5886081BD75
:100CF000089588E181BD11BC089583E389B910BCD2
:100D00005998549A539A529886E880BD08955D9BED
:100D1000FECF8CB908955F9BFECF8CB1089520E083
:100D200004C05D9BFECFECB92F5FFC01E20FF11D0B
:100D3000E081EE23B1F70895FC015F9902C080E0E5
:100D400008958CB1808381E0089589B78E7F89BF33
:100D500089B7826089BF80EC82BF83B78F7B83BFF6
:100D600083B7877F83BF83B7826083BF89B78B7F59
:100D700089BF89B78F7E89BF89B7877F89BF8FE198
:100D80009EE497BD86BD8EB580618EBD8EB58860B0
:100D90008EBD8FB582608FBD8FB58E7F8FBD8FB5B5
:100DA00080688FBD8FB58F7B8FBD8FB580628FBD03
:100DB0008FB58F7E8FBD8EB582608EBD08959BBD31
:100DC0008ABD0895E62FF0E0EE0FFF1FE257FD4FBA
:100DD0009183808308958EB58F7B8EBD89B78062A5
:100DE00089BF089589B78F7D89BF0895FC018CB5AF
:100DF0009DB59183808308951F920F920FB60F9235
:100E000011242F933F934F935F936F937F938F930F
:100E10009F93AF93BF93EF93FF9380918A0290913A
:100E20008B02A0918C02B0918D020196A11DB11D83
:100E300080938A0290938B02A0938C02B0938D02D0
:100E400083549F40A040B04079F480EC82BF109260
:100E50008A0210928B0210928C0210928D02E09105
:100E60008E02F0918F020995FF91EF91BF91AF91A2
:100E70009F918F917F916F915F914F913F912F91B2
:100E80000F900FBE0F901F9018951F920F920FB6E4
:100E90000F9211242F933F934F935F936F937F9300
:100EA0008F939F93AF93BF93EF93FF9380918902AA
:100EB0008F5F80938902843049F410928902E09117
:100EC0009002F0919102309709F00995FF91EF910E
:100ED000BF91AF919F918F917F916F915F914F9152
:100EE0003F912F910F900FBE0F901F9018951F925A
:100EF0000F920FB60F9211242F933F938F939F93CE
:100F0000809186022091870230918802882379F4AB
:100F100086B597B5821B930B9093830280938202D0
:100F20008EB58F7B8EBD81E0809386020DC086B525
:100F300097B5821B930B90938502809384028EB5A4
:100F400080648EBD1092860286B597B59093880214
:100F5000809387029F918F913F912F910F900FBEA9
:100F60000F901F9018956C9A6898699A70986A9A71
:100F70006B9A6D9A6E9A08958FB9779BFECF8FB159
:100F800008958FB780688FBF08958FB78F778FBF11
:100F90000895833008F047C08823D9F4613051F0B8
:100FA000613028F0623061F06330E9F50CC085B73C
:100FB0008E7F02C085B7816085BF85B78D7F25C0D4
:100FC00085B78E7F02C085B7816085BF85B7826097
:100FD0001CC08130E1F4613051F0613028F06230A2
:100FE00061F0633001F50CC085B78B7F02C085B717
:100FF000846085BF85B7877F08C085B78B7F02C0B7
:1010000085B7846085BF85B7886085BF08956230E5
:1010100019F0633041F404C084B78F7B84BF089516
:1010200084B7806484BF0895813041F0813018F026
:10103000823059F407C08BB7806402C08BB78068D8
:101040008BBF08958BB780628BBF0895813041F0CC
:10105000813018F0823059F407C08BB78F7B02C003
:101060008BB78F778BBF08958BB78F7D8BBF08951C
:10107000813079F0813018F08230C9F40FC08AB71E
:1010800090E08074907036E0959587953A95E1F7F9
:1010900008958AB7881F8827881F08958AB790E027
:1010A0008072907025E0959587952A95E1F70895CF
:1010B000813041F0813018F0823059F407C08AB78E
:1010C0008F7B02C08AB78F778ABF08958AB78F7DDA
:1010D0008ABF08956115710541F0E82FF0E0EE0F29
:1010E000FF1FEE56FD4F7183608308951F920F928C
:1010F0000FB60F9211242F933F934F935F936F93EB
:101100007F938F939F93AF93BF93EF93FF93E09160
:101110009202F09193020995FF91EF91BF91AF91E7
:101120009F918F917F916F915F914F913F912F91FF
:101130000F900FBE0F901F9018951F920F920FB631
:101140000F9211242F933F934F935F936F937F934D
:101150008F939F93AF93BF93EF93FF93E09194028C
:10116000F09195020995FF91EF91BF91AF919F91F9
:101170008F917F916F915F914F913F912F910F9040
:101180000FBE0F901F9018951F920F920FB60F92DF
:1011900011242F933F934F935F936F937F938F937C
:1011A0009F93AF93BF93EF93FF93E0919602F091DB
:1011B00097020995FF91EF91BF91AF919F918F9108
:1011C0007F916F915F914F913F912F910F900FBE43
:1011D0000F901F901895E199FECF9FBB8EBB6DBB02
:1011E000E29AE19A0895E199FECF9FBB8EBBE09A07
:1011F0008DB308954130B1F5813099F0813030F0F0
:101200008230D1F0833009F067C021C02AB381E079
:1012100090E002C0880F991F6A95E2F7282B2ABB3D
:10122000089527B381E090E002C0880F991F6A9566
:10123000E2F7282B27BB089524B381E090E002C099
:10124000880F991F6A95E2F7282B24BB089521B3D4
:1012500081E090E002C0880F991F6A95E2F7282B81
:1012600021BB08954423C1F5813099F0813028F0E5
:101270008230D9F0833081F524C02AB381E090E038
:1012800002C0880F991F6A95E2F7809582238ABB76
:10129000089527B381E090E002C0880F991F6A95F6
:1012A000E2F78095822387BB089524B381E090E024
:1012B00002C0880F991F6A95E2F78095822384BB4C
:1012C000089521B381E090E002C0880F991F6A95CC
:1012D000E2F78095822381BB0895813049F0813007
:1012E00028F0823039F0833041F406C06ABB08959B
:1012F00067BB089564BB089561BB0895813049F0D0
:10130000813028F0823039F0833041F406C06BBB65
:10131000089568BB089565BB089562BB0895413088
:10132000B1F5813099F0813030F08230D1F08330E6
:1013300009F067C021C02BB381E090E002C0880FA4
:10134000991F6A95E2F7282B2BBB089528B381E0FB
:1013500090E002C0880F991F6A95E2F7282B28BBFE
:10136000089525B381E090E002C0880F991F6A9527
:10137000E2F7282B25BB089522B381E090E002C05C
:10138000880F991F6A95E2F7282B22BB0895442302
:10139000C1F5813099F0813028F08230D9F0833066
:1013A00081F524C02BB381E090E002C0880F991F23
:1013B0006A95E2F7809582238BBB089528B381E07C
:1013C00090E002C0880F991F6A95E2F7809582230A
:1013D00088BB089525B381E090E002C0880F991F73
:1013E0006A95E2F78095822385BB089522B381E058
:1013F00090E002C0880F991F6A95E2F780958223DA
:1014000082BB0895813051F0813030F0823041F05C
:101410008330C1F080E0089529B303C026B301C032
:1014200023B381E090E0062E02C0880F991F0A9432
:10143000E2F730E08223932302C0959587956A9561
:10144000E2F7089520B381E090E0062E02C0880FF5
:10145000991F0A94E2F730E08223932302C0959506
:1014600087956A95E2F70895813041F1813040F027
:10147000823009F441C0833009F45CC051E077C088
:1014800051E060E070E0E1E0F0E0550F89B39F01CA
:10149000062E02C0220F331F0A94E2F790E02823A1
:1014A0003923062E02C0359527950A94E2F7520F8C
:1014B0006F5F7F4F6830710541F759C051E060E0C0
:1014C00070E0E1E0F0E0550F86B39F01062E02C008
:1014D000220F331F0A94E2F790E028233923062EC7
:1014E00002C0359527950A94E2F7520F6F5F7F4F40
:1014F0006830710541F73BC051E060E070E0E1E029
:10150000F0E0550F83B39F01062E02C0220F331F58
:101510000A94E2F790E028233923062E02C035957D
:1015200027950A94E2F7520F6F5F7F4F683071057D
:1015300041F71DC051E060E070E0E1E0F0E0550FE0
:1015400080B39F01062E02C0220F331F0A94E2F7D8
:1015500090E028233923062E02C0359527950A945A
:10156000E2F7520F6F5F7F4F6830710541F7252F0B
:1015700030E020503140C90108953E9A3F983D988F
:10158000329A319A309A379A089597B1907E97B9E6
:1015900097B18F71892B87B9369A349BFECF349AD5
:1015A00024B135B1C9010895DF93CF9300D00F92D4
:1015B000CDB7DEB769837A838B83862F0E94340A86
:1015C0000F900F900F90CF91DF910895DF93CF93FD
:1015D00000D00F92CDB7DEB7962F6983672F7A833D
:1015E0008B83892F0E94020A0F900F900F90CF914A
:1015F000DF9108950F931F93DF93CF9300D00F9245
:10160000CDB7DEB7962F69837A838B838C01812FC8
:1016100060E00E946D09013019F4812F61E004C07F
:10162000002321F4812F60E00E947E090F900F902B
:101630000F90CF91DF911F910F910895FF920F931B
:101640001F93DF93CF9300D00F92CDB7DEB769839E
:101650007A838B83162F072FF82E862F672F40E073
:101660000E94FA0881E0F81621F4812F602F41E0F2
:1016700005C0FF2029F4812F602F40E00E948F09D0
:101680000F900F900F90CF91DF911F910F91FF90CE
:10169000089583E060E040E00E948F0983E061E00C
:1016A00040E00E948F0983E062E040E00E948F09E1
:1016B00083E063E040E00E948F090895882309F0E9
:1016C00065C0613011F54830510508F0D9C04115A9
:1016D000510509F457C04130510509F4A5C0423005
:1016E000510509F43FC04330510509F48CC0443022
:1016F000510569F14530510509F45BC0463051058B
:1017000009F05EC083E060E00BC0662309F0B8C05A
:101710004830510508F0B4C04115510591F483E0FB
:1017200041E00E948F0983E061E040E00E948F0960
:1017300083E062E040E00E948F0983E063E040E0E4
:1017400085C041305105A9F14230510521F483E0B3
:1017500060E040E04FC04330510509F454C04430CC
:10176000510549F483E060E040E00E948F0983E086
:1017700061E040E050C04530510509F455C04630A5
:101780005105F1F483E060E040E01DC0813009F0D4
:1017900077C0613019F54830510508F071C041300B
:1017A000510509F441C04330510569F145305105F7
:1017B00019F483E060E01DC04730510509F060C0B6
:1017C00083E060E041E00E948F0983E061E040E057
:1017D0000E948F0983E062E040E033C0662309F095
:1017E0004FC04830510508F04BC04130510541F41D
:1017F00083E041E00E948F0983E061E041E096CF01
:101800004330510571F483E060E040E00E948F09AD
:1018100083E061E041E00E948F0983E062E041E003
:101820008ACF45305105A9F483E060E040E00E9492
:101830008F0983E061E040E00E948F0983E062E06D
:1018400041E00E948F0983E063E041E00E948F093C
:10185000089547305105A1F483E060E041E00E9423
:101860008F0983E061E040E00E948F0983E062E03D
:1018700040E00E948F0983E063E041E00E948F090D
:10188000089581E060E040E00E948F0981E061E01E
:1018900040E00E948F0981E062E040E00E948F09F1
:1018A00081E063E040E00E948F0908952F923F920B
:1018B0004F925F926F927F928F929F92AF92BF9260
:1018C000CF92DF92EF92FF920F931F93DF93CF930C
:1018D000CDB7DEB760970FB6F894DEBF0FBECDBFB1
:1018E000142F813009F0A8C2613009F051C1B9014B
:1018F00080E090E0982F872F762F662724EB30E04A
:1019000040E050E00E941E1A59016A01222433244B
:101910002101812F90E0A0E0B0E089839A83AB831E
:10192000BC832FC181E060E041E00E948F0981E02B
:1019300061E040E00E948F0981E062E040E00E94A7
:101940008F0981E063E040E00E948F0969817A811C
:101950008B819C810E94FD033B014C0120E030E023
:101960004AEF54E40E941F027B018C0120E030E02A
:1019700040E85FE30E94790388231CF461E070E093
:1019800023C0C801B70120E03FEF4FE757E40E94B2
:1019900019031816ACF4C401B30120E030E040E2B2
:1019A00051E40E941F020E94490006C088EC90E0AA
:1019B0000197F1F76150704061157105B9F707C0E3
:1019C000C801B7010E944900CB010197F1F781E0FE
:1019D00060E040E00E948F0981E061E041E00E9408
:1019E0008F0981E062E040E00E948F0981E063E0BE
:1019F00040E00E948F09C801B70120E030E040E8D4
:101A00005FE30E94790388231CF461E070E023C047
:101A1000C801B70120E03FEF4FE757E40E941903E8
:101A20001816ACF4C401B30120E030E040E251E408
:101A30000E941F020E94490006C088EC90E00197B6
:101A4000F1F76150704061157105B9F707C0C80121
:101A5000B7010E944900CB010197F1F781E060E0F6
:101A600040E00E948F0981E061E040E00E948F0920
:101A700081E062E041E00E948F0981E063E040E0A4
:101A80000E948F09C801B70120E030E040E85FE321
:101A90000E94790388231CF461E070E023C0C80130
:101AA000B70120E03FEF4FE757E40E9419031816F3
:101AB000ACF4C401B30120E030E040E251E40E9404
:101AC0001F020E94490006C088EC90E00197F1F7E0
:101AD0006150704061157105B9F707C0C801B701C1
:101AE0000E944900CB010197F1F781E060E040E0FE
:101AF0000E948F0981E061E040E00E948F0981E04F
:101B000062E040E00E948F0981E063E041E00E94D2
:101B10008F09C801B70120E030E040E85FE30E9490
:101B2000790388231CF461E070E023C0C801B70189
:101B300020E03FEF4FE757E40E9419031816ACF47A
:101B4000C401B30120E030E040E251E40E941F02F2
:101B50000E94490006C088EC90E00197F1F76150BF
:101B6000704061157105B9F707C0C801B7010E943F
:101B70004900CB010197F1F70894211C311C411C4D
:101B8000511C2A143B044C045D0408F4CBCE3CC623
:101B9000662309F039C6B90180E090E0982F872FBD
:101BA000762F662724EB30E040E050E00E941E1ABA
:101BB00059016A01222433242101812F90E0A0E001
:101BC000B0E08D839E83AF83B8872FC181E060E052
:101BD00040E00E948F0981E061E040E00E948F09AF
:101BE00081E062E040E00E948F0981E063E041E033
:101BF0000E948F096D817E818F8198850E94FD03EF
:101C00003B014C0120E030E04AEF54E40E941F0207
:101C10007B018C0120E030E040E85FE30E94790323
:101C200088231CF461E070E023C0C801B70120E004
:101C30003FEF4FE757E40E9419031816ACF4C401B4
:101C4000B30120E030E040E251E40E941F020E9414
:101C5000490006C088EC90E00197F1F761507040B0
:101C600061157105B9F707C0C801B7010E944900A5
:101C7000CB010197F1F781E060E040E00E948F091D
:101C800081E061E040E00E948F0981E062E041E094
:101C90000E948F0981E063E040E00E948F09C80143
:101CA000B70120E030E040E85FE30E947903882339
:101CB0001CF461E070E023C0C801B70120E03FEFF1
:101CC0004FE757E40E9419031816ACF4C401B3019E
:101CD00020E030E040E251E40E941F020E944900EF
:101CE00006C088EC90E00197F1F7615070406115F3
:101CF0007105B9F707C0C801B7010E944900CB01BF
:101D00000197F1F781E060E040E00E948F0981E0F7
:101D100061E041E00E948F0981E062E040E00E94C2
:101D20008F0981E063E040E00E948F09C801B7019C
:101D300020E030E040E85FE30E94790388231CF450
:101D400061E070E023C0C801B70120E03FEF4FE73A
:101D500057E40E9419031816ACF4C401B30120E043
:101D600030E040E251E40E941F020E94490006C098
:101D700088EC90E00197F1F76150704061157105B2
:101D8000B9F707C0C801B7010E944900CB0101970C
:101D9000F1F781E060E041E00E948F0981E061E0BD
:101DA00040E00E948F0981E062E040E00E948F09DC
:101DB00081E063E040E00E948F09C801B70120E0A4
:101DC00030E040E85FE30E94790388231CF461E07F
:101DD00070E023C0C801B70120E03FEF4FE757E4B0
:101DE0000E9419031816ACF4C401B30120E030E0DE
:101DF00040E251E40E941F020E94490006C088ECA4
:101E000090E00197F1F76150704061157105B9F7E5
:101E100007C0C801B7010E944900CB010197F1F743
:101E20000894211C311C411C511C2A143B044C04F5
:101E30005D0408F4CBCEE8C4882309F0E5C4613022
:101E400009F070C2B90180E090E039E0660F771FB9
:101E5000881F991F3A95D1F728E631E040E050E01D
:101E60000E941E1A39014A01222433242101812FA4
:101E700090E0A0E0B0E089879A87AB87BC874BC22F
:101E800081E060E041E00E948F0981E061E040E094
:101E90000E948F0981E062E040E00E948F0981E0AA
:101EA00063E040E00E948F0969857A858B859C8577
:101EB0000E94FD035B016C0120E030E04AEF54E436
:101EC0000E941F027B018C0120E030E040E85FE3CC
:101ED0000E94790388231CF461E070E023C0C801EC
:101EE000B70120E03FEF4FE757E40E9419031816AF
:101EF000ACF4C601B50120E030E040E251E40E94BC
:101F00001F020E94490006C088EC90E00197F1F79B
:101F10006150704061157105B9F707C0C801B7017C
:101F20000E944900CB010197F1F781E060E041E0B8
:101F30000E948F0981E061E041E00E948F0981E009
:101F400062E040E00E948F0981E063E040E00E948F
:101F50008F09C801B70120E030E040E85FE30E944C
:101F6000790388231CF461E070E023C0C801B70145
:101F700020E03FEF4FE757E40E9419031816ACF436
:101F8000C601B50120E030E040E251E40E941F02AA
:101F90000E94490006C088EC90E00197F1F761507B
:101FA000704061157105B9F707C0C801B7010E94FB
:101FB0004900CB010197F1F781E060E040E00E9429
:101FC0008F0981E061E041E00E948F0981E062E0D9
:101FD00040E00E948F0981E063E040E00E948F09A9
:101FE000C801B70120E030E040E85FE30E947903D8
:101FF00088231CF461E070E023C0C801B70120E031
:102000003FEF4FE757E40E9419031816ACF4C601DE
:10201000B50120E030E040E251E40E941F020E943E
:10202000490006C088EC90E00197F1F761507040DC
:1020300061157105B9F707C0C801B7010E944900D1
:10204000CB010197F1F781E060E040E00E948F0949
:1020500081E061E041E00E948F0981E062E041E0BF
:102060000E948F0981E063E040E00E948F09C8016F
:10207000B70120E030E040E85FE30E947903882365
:102080001CF461E070E023C0C801B70120E03FEF1D
:102090004FE757E40E9419031816ACF4C601B501C6
:1020A00020E030E040E251E40E941F020E9449001B
:1020B00006C088EC90E00197F1F76150704061151F
:1020C0007105B9F707C0C801B7010E944900CB01EB
:1020D0000197F1F781E060E040E00E948F0981E024
:1020E00061E040E00E948F0981E062E041E00E94EF
:1020F0008F0981E063E040E00E948F09C801B701C9
:1021000020E030E040E85FE30E94790388231CF47C
:1021100061E070E023C0C801B70120E03FEF4FE766
:1021200057E40E9419031816ACF4C601B50120E06B
:1021300030E040E251E40E941F020E94490006C0C4
:1021400088EC90E00197F1F76150704061157105DE
:10215000B9F707C0C801B7010E944900CB01019738
:10216000F1F781E060E040E00E948F0981E061E0EA
:1021700040E00E948F0981E062E041E00E948F0907
:1021800081E063E041E00E948F09C801B70120E0CF
:1021900030E040E85FE30E94790388231CF461E0AB
:1021A00070E023C0C801B70120E03FEF4FE757E4DC
:1021B0000E9419031816ACF4C601B50120E030E006
:1021C00040E251E40E941F020E94490006C088ECD0
:1021D00090E00197F1F76150704061157105B9F712
:1021E00007C0C801B7010E944900CB010197F1F770
:1021F00081E060E040E00E948F0981E061E040E022
:102200000E948F0981E062E040E00E948F0981E036
:1022100063E041E00E948F09C801B70120E030E08F
:1022200040E85FE30E94790388231CF461E070E0DA
:1022300023C0C801B70120E03FEF4FE757E40E94F9
:1022400019031816ACF4C601B50120E030E040E2F5
:1022500051E40E941F020E94490006C088EC90E0F1
:102260000197F1F76150704061157105B9F707C02A
:10227000C801B7010E944900CB010197F1F781E045
:1022800060E041E00E948F0981E061E040E00E944F
:102290008F0981E062E040E00E948F0981E063E005
:1022A00041E00E948F09C801B70120E030E040E81A
:1022B0005FE30E94790388231CF461E070E023C08F
:1022C000C801B70120E03FEF4FE757E40E94190330
:1022D0001816ACF4C601B50120E030E040E251E44C
:1022E0000E941F020E94490006C088EC90E00197FE
:1022F000F1F76150704061157105B9F707C0C80169
:10230000B7010E944900CB010197F1F70894211C05
:10231000311C411C511C261437044804590408F48C
:10232000AFCD72C2662309F06FC2B90180E090E0C0
:1023300029E0660F771F881F991F2A95D1F728E695
:1023400031E040E050E00E941E1A39014A01222487
:1023500033242101812F90E0A0E0B0E08D879E879B
:10236000AF87B88B4BC281E060E041E00E948F09EB
:1023700081E061E040E00E948F0981E062E040E09E
:102380000E948F0981E063E041E00E948F096D8522
:102390007E858F8598890E94FD035B016C0120E09A
:1023A00030E04AEF54E40E941F027B018C0120E0E0
:1023B00030E040E85FE30E94790388231CF461E089
:1023C00070E023C0C801B70120E03FEF4FE757E4BA
:1023D0000E9419031816ACF4C601B50120E030E0E4
:1023E00040E251E40E941F020E94490006C088ECAE
:1023F00090E00197F1F76150704061157105B9F7F0
:1024000007C0C801B7010E944900CB010197F1F74D
:1024100081E060E040E00E948F0981E061E040E0FF
:102420000E948F0981E062E040E00E948F0981E014
:1024300063E041E00E948F09C801B70120E030E06D
:1024400040E85FE30E94790388231CF461E070E0B8
:1024500023C0C801B70120E03FEF4FE757E40E94D7
:1024600019031816ACF4C601B50120E030E040E2D3
:1024700051E40E941F020E94490006C088EC90E0CF
:102480000197F1F76150704061157105B9F707C008
:10249000C801B7010E944900CB010197F1F781E023
:1024A00060E040E00E948F0981E061E040E00E942E
:1024B0008F0981E062E041E00E948F0981E063E0E2
:1024C00041E00E948F09C801B70120E030E040E8F8
:1024D0005FE30E94790388231CF461E070E023C06D
:1024E000C801B70120E03FEF4FE757E40E9419030E
:1024F0001816ACF4C601B50120E030E040E251E42A
:102500000E941F020E94490006C088EC90E00197DB
:10251000F1F76150704061157105B9F707C0C80146
:10252000B7010E944900CB010197F1F781E060E01B
:1025300040E00E948F0981E061E040E00E948F0945
:1025400081E062E041E00E948F0981E063E040E0C9
:102550000E948F09C801B70120E030E040E85FE346
:102560000E94790388231CF461E070E023C0C80155
:10257000B70120E03FEF4FE757E40E941903181618
:10258000ACF4C601B50120E030E040E251E40E9425
:102590001F020E94490006C088EC90E00197F1F705
:1025A0006150704061157105B9F707C0C801B701E6
:1025B0000E944900CB010197F1F781E060E040E023
:1025C0000E948F0981E061E041E00E948F0981E073
:1025D00062E041E00E948F0981E063E040E00E94F8
:1025E0008F09C801B70120E030E040E85FE30E94B6
:1025F000790388231CF461E070E023C0C801B701AF
:1026000020E03FEF4FE757E40E9419031816ACF49F
:10261000C601B50120E030E040E251E40E941F0213
:102620000E94490006C088EC90E00197F1F76150E4
:10263000704061157105B9F707C0C801B7010E9464
:102640004900CB010197F1F781E060E040E00E9492
:102650008F0981E061E041E00E948F0981E062E042
:1026600040E00E948F0981E063E040E00E948F0912
:10267000C801B70120E030E040E85FE30E94790341
:1026800088231CF461E070E023C0C801B70120E09A
:102690003FEF4FE757E40E9419031816ACF4C60148
:1026A000B50120E030E040E251E40E941F020E94A8
:1026B000490006C088EC90E00197F1F76150704046
:1026C00061157105B9F707C0C801B7010E9449003B
:1026D000CB010197F1F781E060E041E00E948F09B2
:1026E00081E061E041E00E948F0981E062E040E02A
:1026F0000E948F0981E063E040E00E948F09C801D9
:10270000B70120E030E040E85FE30E9479038823CE
:102710001CF461E070E023C0C801B70120E03FEF86
:102720004FE757E40E9419031816ACF4C601B5012F
:1027300020E030E040E251E40E941F020E94490084
:1027400006C088EC90E00197F1F761507040611588
:102750007105B9F707C0C801B7010E944900CB0154
:102760000197F1F781E060E041E00E948F0981E08C
:1027700061E040E00E948F0981E062E040E00E9459
:102780008F0981E063E040E00E948F09C801B70132
:1027900020E030E040E85FE30E94790388231CF4E6
:1027A00061E070E023C0C801B70120E03FEF4FE7D0
:1027B00057E40E9419031816ACF4C601B50120E0D5
:1027C00030E040E251E40E941F020E94490006C02E
:1027D00088EC90E00197F1F7615070406115710548
:1027E000B9F707C0C801B7010E944900CB010197A2
:1027F000F1F70894211C311C411C511C261437048C
:102800004804590408F4AFCD60960FB6F894DEBFC3
:102810000FBECDBFCF91DF911F910F91FF90EF9031
:10282000DF90CF90BF90AF909F908F907F906F90F0
:102830005F904F903F902F90089583E060E041E0DB
:102840000E94FA0883E061E041E00E94FA0883E018
:1028500062E041E00E94FA0883E063E041E00E9408
:10286000FA0883E060E040E00E948F0983E061E0C5
:1028700040E00E948F0983E062E040E00E948F09FF
:1028800083E063E040E00E948F09089581E063E007
:102890004FEF0E94FA0881E062E04FEF0E94FA08D1
:1028A00081E060E04FEF0E94FA0881E061E04FEFC5
:1028B0000E94FA0881E060E040E00E948F0981E018
:1028C00061E040E00E948F0981E062E040E00E9408
:1028D0008F0981E063E040E00E948F0908950F9323
:1028E000DF93CF9300D000D000D0CDB7DEB74983BF
:1028F0005A836B837C838D839E83222331F4E02F64
:10290000F0E0E75AFD4F20810EC0213071F4E02F36
:10291000F0E0E75AFD4F2081209549815A816B8173
:102920007C818D819E810E94D51426960FB6F894E5
:10293000DEBF0FBECDBFCF91DF910F910895DF9322
:10294000CF9300D000D000D0CDB7DEB749835A83F3
:102950006B837C838D839E830E94481526960FB6D9
:10296000F894DEBF0FBECDBFCF91DF91089590E008
:10297000A0E0B0E0BC01CD0128EE33E040E050E043
:102980000E94F31924EB30E040E050E00E941E1A50
:10299000DA01C90188519C4F0E94DF06089583E047
:1029A00065E041E00E94FA0808955F926F927F927D
:1029B0008F929F92AF92BF92CF92DF92EF92FF924F
:1029C0000F931F93DF93CF9300D000D000D0CDB7EB
:1029D000DEB7F42F49835A836B837C838D839E8378
:1029E000122FD82E092F5F2E852E962EC72E692FD7
:1029F00040E00E948F0997E0E92EF12C81E0682EDB
:102A0000712CA12EBB24A3010E2C02C0440F551F14
:102A10000A94E2F74A215B210E2C02C05595479596
:102A20000A94E2F7852D682D0E948F09892D6C2D5F
:102A300041E00E948F09892D6C2D40E00E948F0992
:102A40000894E108F1088FEFE8168FEFF806D9F641
:102A50008D2D602F41E00E948F098D2D602F40E069
:102A60000E948F0926960FB6F894DEBF0FBECDBF29
:102A7000CF91DF911F910F91FF90EF90DF90CF905A
:102A8000BF90AF909F908F907F906F905F900895D0
:102A9000DF93CF9300D000D000D0CDB7DEB749830D
:102AA0005A836B837C838D839E83842F652F41E0C3
:102AB0000E94FA088B816C8141E00E94FA088D81A6
:102AC0006E8141E00E94FA0826960FB6F894DEBFA8
:102AD0000FBECDBFCF91DF9108950F931F93182F95
:102AE000092F692F0E94020A813021F4812F602F63
:102AF00040E003C0812F602F41E00E948F091F91A9
:102B00000F910895692F40E00E948F090895692F61
:102B100041E00E948F0908950E947E0908950E9455
:102B20007E0908956FEF0E946D090895692F41E0B5
:102B30000E94FA080895FF920F931F93F82E082F12
:102B400010E0A8014071507024E0559547952A95F2
:102B5000E1F781E062E00E948F09A80140725070A5
:102B600095E0559547959A95E1F781E063E00E94DD
:102B70008F090074107086E0159507958A95E1F726
:102B800081E064E0402F0E948F09FF1CFF24FF1C9E
:102B900081E065E04F2D0E948F091F910F91FF90FA
:102BA000089581E061E041E00E948F0980EA9FE0A2
:102BB0000197F1F781E061E040E00E948F090895FC
:102BC0001F93182F81E060E041E00E948F09812F60
:102BD0000E949B150E94D115812F8295807F0E94B3
:102BE0009B150E94D1151F910895AF92BF92CF926D
:102BF000DF92EF92FF920F931F93DF93CF93CDB7A6
:102C0000DEB72C970FB6F894DEBF0FBECDBF6B01B9
:102C10007C01611571058105910521F480E30E9415
:102C2000E0153BC010E05E010894A11CB11CC50179
:102C3000810F911D9C878B87C701B6012AE030E088
:102C400040E050E00E941E1A605DEB85FC856083C9
:102C5000C701B6012AE030E040E050E00E941E1AB1
:102C6000C901DA016C017D011F5FC114D104E104C7
:102C7000F104E9F6012F0150E02EFF24E7FCF09467
:102C8000EA0CFB1C08C0F70180810E94E01501508E
:102C90000894E108F10807FFF6CF2C960FB6F894D8
:102CA000DEBF0FBECDBFCF91DF911F910F91FF907F
:102CB000EF90DF90CF90BF90AF9008951F93CF9388
:102CC000DF93EC0110E003C00E94E0151F5FFE01DE
:102CD000E10FF11D80818823B9F7DF91CF911F911A
:102CE00008951F93182F81E060E040E00E948F0953
:102CF000812F0E949B150E94D115812F8295807F84
:102D00000E949B150E94D1151F910895662319F00A
:102D1000613009F4805C80580E947116089581E04A
:102D200060E041E00E94FA0881E061E041E00E9439
:102D3000FA0881E062E041E00E94FA0881E063E085
:102D400041E00E94FA0881E064E041E00E94FA0854
:102D500081E065E041E00E94FA0880E991E028EC1A
:102D600030E0F9013197F1F70197D9F783E30E9439
:102D7000711682E30E94711688E20E9471168CE03F
:102D80000E94711681E00E9471160895EF92FF92E1
:102D90000F931F93CF93DF93C0E0D0E0FE01E9597A
:102DA000FD4FE080FE01ED59FD4F10818E2D612F0A
:102DB00040E00E948F0943E0F42E04E083E064E0E9
:102DC0000E94020A882319F480E090E020C0FF24CA
:102DD000F39406E081E066E00E94020A882319F479
:102DE00081E090E014C033E0F32E83E066E00E94BF
:102DF000020A882319F482E090E009C007E083E02A
:102E000067E00E94020A8823B1F483E090E0CC0FCF
:102E1000DD1FCC0FDD1FC80FD91FC559DD4F18812D
:102E20008F2D602F0E94020A8823D1F380E49CE951
:102E30000197F1F70BC08E2D612F41E00E948F09A1
:102E40002196C430D10509F0A9CF1FEF812FDF9162
:102E5000CF911F910F91FF90EF90089580E064E073
:102E600041E00E94FA0880E065E041E00E94FA0833
:102E700080E066E041E00E94FA0880E067E041E01F
:102E80000E94FA0880E064E041E00E948F0980E03F
:102E900065E041E00E948F0980E066E041E00E9429
:102EA0008F0980E067E041E00E948F0983E064E0E1
:102EB00040E00E94FA0881E066E040E00E94FA08E3
:102EC00083E066E040E00E94FA0883E067E040E0CB
:102ED0000E94FA0883E064E041E00E948F0981E0EB
:102EE00066E041E00E948F0983E066E041E00E94D5
:102EF0008F0983E067E041E00E948F090895682F01
:102F0000892F40E00E948F090895682F892F41E0A2
:102F10000E948F0908950F931F938C01812F602FBA
:102F200041E00E94FA08812F602F40E00E948F0943
:102F30001F910F910895692F40E00E948F09089515
:102F4000692F41E00E948F0908950F931F93182F56
:102F5000092F692F41E00E94FA08812F602F40E07D
:102F60000E948F091F910F9108956F927F928F9207
:102F70009F92AF92BF92CF92DF92EF92FF920F9308
:102F80001F93DF93CF93CDB7DEB729970FB6F89491
:102F9000DEBF0FBECDBF1A821B821C821D8284B78A
:102FA000806884BF84B7806884BF0E948F160E94A7
:102FB0002E170E94BD0A40917B0250917C026091C5
:102FC0007D0270917E0280917F02909180020E942A
:102FD0009F140E947D060E94CF1487E091E00E941A
:102FE0008B1782E065E041E00E94FA0880E061E032
:102FF00040E00E94FA0880E062E040E00E94FA08A7
:1030000080E061E041E00E948F0980E062E041E001
:103010000E948F09809157026AE00E94121A9093D1
:103020009802809157020E94121A8093990286E5B5
:1030300099E161E00E94E2060E94A5060E94C10794
:1030400081E38E8382E38F8383E3888784E38987A8
:1030500087E091E00E94851784EB0E94B71480E618
:1030600090E00E948F0681E00E94711681E890E056
:103070000E945E16FF2401E03E010894611C711C51
:1030800022E0C22ED12CCC0EDD1E96E0892E912C92
:103090008C0E9D1E88ECA82EB12C01C002E080E0B1
:1030A00061E00E94020AE82E80E062E00E94020ACB
:1030B000182FC3010E949C06982F809157028823E5
:1030C00039F0113029F09923E9F089818B34D1F45A
:1030D0001092580287E091E00E947F1781E00E94E1
:1030E00071168CE890E00E945E168BE990E00E94D9
:1030F0008F0680E00E94B71482E065E041E00E9404
:103100008F09FFCF81E0E816B9F41092580287E0EA
:1031100091E00E947F1781E00E94711685EB90E09C
:103120000E945E1686EC90E00E948F0682E065E0C9
:1031300040E00E948F09FFCF9923D1F08981833528
:10314000B9F41092580287E091E00E947F1781E065
:103150000E94711688ED90E00E945E1689EE90E064
:103160000E948F0682E065E040E00E948F09FFCF59
:103170000130B1F580E00E94C50AA0E0B0E0BC01DA
:10318000CD0124E630E040E050E00E94F3192FEF3B
:1031900033E040E050E00E941E1A122F80E061E010
:1031A0000E948616612F70E080E090E00E94F51585
:1031B00084E091E00E945E160E94C6168D3309F0ED
:1031C0006ECF123309F06BCF81E00E94711688E058
:1031D00091E00E945E1680E061E00E9486165ECF5C
:1031E0000E94C6168F3F09F459CFF601EF0DF11D6D
:1031F00080838AE20E94E015F39484E0F81609F0D7
:103200004DCF20E030E0F601E20FF31FD401A20F12
:10321000B31F90818C91981731F42F5F3F4F24306A
:10322000310589F72CC081E00E94711688E191E098
:103230000E945E1684E291E00E948F068091570200
:10324000863010F405C0FFCF80915702855001C031
:1032500081E08093570288E59BE1F5013197F1F712
:103260000197D9F781E00E94711688E091E00E94F1
:103270005E1680E061E00E948616FF240FCF109258
:10328000580287E091E00E947F1782E065E040E00D
:103290000E948F0981E00E9471168EE391E00E94E6
:1032A0005E1686EC90E00E948F06CDCF0F93809142
:1032B0005802882341F482E063E041E00E948F09D4
:1032C00082E064E065C080919B028F5F80939B02E7
:1032D000823009F04BC010929B0263E041E00E94F3
:1032E000FA0882E064E041E00E94FA0882E063E0CC
:1032F00040E00E948F0982E064E040E00E948F0974
:1033000080919A028823D1F40091980240917B0227
:1033100050917C0260917D0270917E0280917F02CB
:103320009091800221E00E946F1482E063E041E00E
:103330000E948F0981E080939A0218C0009199023F
:1033400040917B0250917C0260917D0270917E02DF
:1033500080917F029091800221E00E946F1482E0B0
:1033600064E041E00E948F0910929A028091580215
:103370008130B9F580919C0290919D0201969093C5
:103380009D0280939C028130910531F482E065E0DA
:1033900041E00E948F0925C021E0843F920721F47B
:1033A00082E065E040E0F5CF885E9340D1F4109272
:1033B0009D0210929C0280915702882391F0809187
:1033C0005702815080935702809157026AE00E9411
:1033D000121A90939802809157020E94121A8093B9
:1033E00099020F910895629FD001739FF001829F0F
:1033F000E00DF11D649FE00DF11D929FF00D839F84
:10340000F00D749FF00D659FF00D9927729FB00D20
:10341000E11DF91F639FB00DE11DF91FBD01CF0133
:1034200011240895991B79E004C0991F961708F09C
:10343000961B881F7A95C9F780950895A1E21A2EE8
:10344000AA1BBB1BFD010DC0AA1FBB1FEE1FFF1F48
:10345000A217B307E407F50720F0A21BB30BE40B98
:10346000F50B661F771F881F991F1A9469F76095DF
:103470007095809590959B01AC01BD01CF01089599
:103480002F923F924F925F926F927F928F929F9274
:10349000AF92BF92CF92DF92EF92FF920F931F9362
:1034A000CF93DF93CDB7DEB7CA1BDB0B0FB6F89413
:1034B000DEBF0FBECDBF09942A88398848885F8453
:1034C0006E847D848C849B84AA84B984C884DF80C4
:1034D000EE80FD800C811B81AA81B981CE0FD11DA8
:1034E0000FB6F894DEBF0FBECDBFED010895F8947E
:0234F000FFCF0C
:1034F200424F4D422041524D4544212054696D6551
:10350200206973207469636B696E672E2E2E0D0A13
:103512000053616665204469616C3A00424F4F4D29
:103522002120594F55204449454400424F4F4D21D7
:10353200205461726765742044657374726F796593
:10354200642E0D0A004445465553454420425920F5
:1035520057495245210053797374656D204465665D
:10356200757365642E0D0A00444546555345442043
:1035720042592041444D494E0053797374656D2080
:10358200446566757365642052656D6F74656C7908
:103592002E0D0A0020202000456E746572205061B5
:1035A2007373776F72643A0057524F4E47205041FF
:1035B2005353210057726F6E672050617373776F98
:1035C200726420656E74657265642E0D0A0044454E
:1035D200465553454420425920434F44452100005B
:1035E20000000000000000000102020303030304C4
:1035F2000404040404040405050505050505050580
:10360200050505050505050606060606060606065F
:103612000606060606060606060606060606060648
:10362200060606060606060707070707070707072F
:103632000707070707070707070707070707070718
:103642000707070707070707070707070707070708
:1036520007070707070707070707070707070707F8
:1036620007070707070707080808080808080808DF
:1036720008080808080808080808080808080808C8
:1036820008080808080808080808080808080808B8
:1036920008080808080808080808080808080808A8
:1036A2000808080808080808080808080808080898
:1036B2000808080808080808080808080808080888
:1036C2000808080808080808080808080808080878
:1036D2000808080808080808080808080808080868
:1036E200080808080808083C013F065B4F666D7D24
:1036F200077F6F04050607000000003738392F34B2
:1037020035362A3132332D43303D2B02000201027D
:023712000200B3
:00000001FF
